:020000040800F2
:10000000B0040020C5010008B31F00086B180008E9
:10001000B11F00088D0800089721000800000000AB
:10002000000000000000000000000000B71F0008F2
:100030008F08000800000000B51F0008B91F000865
:10004000DF010008DF010008DF010008DF01000810
:10005000DF010008DF010008DF010008DF01000800
:10006000DF010008DF010008DF010008DF010008F0
:10007000DF010008DF010008DF010008DF010008E0
:10008000DF010008DF010008DF010008DF010008D0
:10009000DF010008DF010008DF0100089108000807
:1000A000DF010008DF010008DF010008DF010008B0
:1000B00059200008DF010008DF010008DF01000807
:1000C000DF010008DF010008DF010008DF01000890
:1000D000DF010008DF010008DF010008DF01000880
:1000E000DF010008DF010008DF010008DF01000870
:1000F000DF010008DF010008DF010008DF01000860
:10010000DF010008DF010008DF010008DF0100084F
:10011000DF010008DF010008DF010008DF0100083F
:10012000DF010008DF010008DF010008DF0100082F
:10013000DF010008DF010008DF010008DF0100081F
:10014000DF010008DF010008DF010008DF0100080F
:10015000DF010008DF010008DF010008DF010008FF
:10016000DF010008DF010008DF010008DF010008EF
:10017000DF010008DF010008DF01000800000000C7
:10018000DF010008DF010008DF010008DF010008CF
:10019000DF010008DF010008DF010008DF010008BF
:1001A000DF010008DF010008DF010008DFF810D0E0
:1001B00000F0C6FA00480047AD2A0008AFF30080FF
:1001C000B00400200648804706480047FEE7FEE7E7
:1001D000FEE7FEE7FEE7FEE7FEE7FEE7FEE7FEE7F7
:1001E0003D200008AD0100082DE9F05F0546002024
:1001F00092469B4688460646814640241BE0284698
:1002000041464746224600F0ECF953465A46C01A8A
:10021000914110D311461846224600F0D3F92D1A09
:1002200067EB01084F4622460120002100F0CAF981
:1002300017EB00094E41201EA4F10104DFDC484603
:1002400031462A464346BDE8F09FD2B201E000F8AD
:10025000012B491EFBD270470022F6E710B513466A
:100260000A4604461946FFF7F0FF204610BD2DE967
:10027000FE4F804681EA0300C00F0C46009021F03B
:10028000004123F00045B8EB0200A94105D24046E9
:10029000214690461C460B46024623F00040104380
:1002A00047D0270DC7F30A00C3F30A510290401A42
:1002B000019040286BDAC3F3130040F4801B0098D0
:1002C000924620B10023D2EB030A63EB0B0B01989B
:1002D0005946C0F14002504600F074F906460D46FA
:1002E00050465946019A00F08CF910EB0800614124
:1002F000002487EA115284EAE7731A4340D0009A37
:1003000062B3019A012A4FEA075215DC001B61EB28
:1003100002014FF0004202EA0752CDE90042001C00
:1003200041F5801132462B4600F08CF903B0BDE850
:10033000F08F40462146F9E7001B61EB0201001CEB
:1003400041F5801300185B412018A2F5001747EB18
:10035000030140EAD570B6196D4111E06D084FEA0E
:10036000360645EAC0754FEA0752001B61EB0201F1
:10037000001C41F5801149084FEA30000019514135
:1003800032462B4603B0BDE8F04F00F04CB9009860
:10039000012240000023D0EB020263EBE0730098DF
:1003A00021464FEAE074B8EB000061EB0401E9E795
:1003B00083F000435BE781F0004158E72DE9FE4FF1
:1003C00081EA030404F0004421F0004100944FF05E
:1003D000000B23F0004350EA01045ED052EA03040C
:1003E0005BD0C3F30A54C1F30A552C44A4F2F3348E
:1003F0000194A0FB0254C1F3130141F48011C3F333
:10040000130343F4801301FB024400FB034E840AF0
:10041000970A44EA815447EA8357A4FB0768029588
:100420008D0A05FB07854FEA932C04FB0C54270526
:10043000029D4FEA065847EA1637B5EB08056EEB02
:10044000070C870E920E47EA811742EA8312A7FB38
:100450000201B6EB0B0164EB00042B0D43EA0C33F5
:100460005E1844EB1C50DA465146E7FB0201C5F327
:1004700013044FEA0B3343EA14534FEA0432019C4E
:1004800043EA0603A4F10C040294009CCDE900B4F5
:1004900000F0D8F803B0BDE8F08F00200146F9E77E
:1004A0002DE9F04D81EA030404F0004B21F00045F2
:1004B00014464FF0000A23F0004150EA050220D014
:1004C00054EA01021DD0C5F30A570246C5F31303CF
:1004D000C1F31300C1F30A5640F4801543F48013AE
:1004E000A7EB0608101BD64608F2FD3873EB050093
:1004F00002D308F1010801E092185B41B8F1000F46
:1005000003DA00200146BDE8F08D00204FF4801191
:10051000064684460EE0171B73EB050705D3121B36
:1005200063EB050306434CEA010C49084FEA30002F
:1005300092185B4150EA0107EDD152EA030012D054
:1005400082EA040083EA0501084305D0101BAB4191
:1005500006D20122002306E000224FF0004302E011
:100560006FF0010253101AEB06004CEB085110EB30
:100570000A0041EB0B01BDE8F04D00F054B80EB598
:1005800040F2334102910021CDE900110A460B46A9
:1005900000F058F803B000BD30B50B46014600200E
:1005A0002022012409E021FA02F59D4205D303FA35
:1005B00002F5491B04FA02F52844151EA2F10102B6
:1005C000F1DC30BD202A04DB203A00FA02F10020E1
:1005D00070479140C2F1200320FA03F31943904081
:1005E0007047202A04DB203A21FA02F000217047EC
:1005F00021FA02F3D040C2F120029140084319468B
:100600007047202A06DBCB17203A41FA02F043EA72
:10061000E07306E041FA02F3D040C2F120029140BB
:1006200008431946704710B5141E73F1000408DA28
:10063000401C41F1000192185B411A4301D120F0A6
:10064000010010BD2DE9F04D92469B4611B1B1FA63
:1006500081F202E0B0FA80F220329046FFF7B2FF5A
:1006600004460F4640EA0A0041EA0B0153465A4647
:10067000084313D0114653EA010019D0C8F14002D3
:100680005046FFF7AEFF05460E46504659464246D5
:10069000FFF798FF084305D0012004E020463946C3
:1006A000BDE8F08D0020054346EAE0762C43374351
:1006B0000A986305E40AA0EB08000022FD0A44EA58
:1006C00047540A3002D500200146E9E70105101918
:1006D0006941DDE9084500196941BDE8F04DA2E72F
:1006E000C1F30A52C1F3130140F2FF3341F4801108
:1006F0009A4202DA00200146704740F233439A42A0
:10070000A2F2334202DC5242FFF76BBFFFF75ABF3F
:1007100030B5041E71F1000404DB4FF00044404288
:1007200064EB0101141E73F1000405DB1C464FF05D
:100730000043524263EB0403994208BF904230BD2C
:10074000064C074D06E0E06840F0010394E807001E
:1007500098471034AC42F6D3FFF72CFDA02C0008CC
:10076000C02C0008464910B54A6822F440324A605D
:100770004A6843681A434A6001684A6822F48072F2
:100780004A6001684A68036942EA03224A600168D4
:100790004A6822F040724A6001684A6883681A43D6
:1007A0004A6001688A6822F400628A6001688A6887
:1007B000C3681A438A60816A6FF07062D14201682F
:1007C0008A6822F070628A6001688A680CD0836A45
:1007D0001A438A6001688A6822F040528A60016880
:1007E0008A68C36A1A4301E022F040528A600168B5
:1007F0008A6822F002028A6001688A68037E42EAFF
:1008000043028A6090F82010002901684A680FD0DE
:1008100042F400624A6001684A6822F460424A6019
:1008200001684A68174C436A04EB43331A4301E0FA
:1008300022F400624A600168CA6A22F47002CA6245
:100840000168CA6A838B104C04EB03531A43CA62D3
:1008500001688A6822F400728A6001688A6890F8E8
:10086000303042EA43228A6001688A6822F480625A
:100870008A6001688A68406942EA8020886010BD09
:100880000023014000E0FFFF0000F0FFFEE770479B
:1008900070B54FF480752946114800F009FBD0B1BE
:1008A000104C114E012220681146401C2060304639
:1008B00000F003FB01228021304600F0FEFA012205
:1008C0009103304600F0F9FA206842F21071884234
:1008D00001DD002020602846BDE8704000F0F2B93C
:1008E00000080240000000200004024078B5002407
:1008F000009490F83C20012A19D0012280F83C2075
:100900000A6807230568092A13D9EE680A3A02EB38
:10091000420293409E43EE600B788A680A3B03EBE9
:1009200043039A400368DD682A43DA6010E002203E
:1009300078BD2E6902EB420293409E432E610B78F4
:100940008A6803EB43039A4003681D692A431A61CE
:100950004A681F23072A13D205686E6B521E02EBEA
:10096000820293409E436E630A8893B20A79521EB4
:1009700002EB820293400268556B2B43536327E0DE
:1009800005680D2A12D22E6BD21F02EB8202934011
:100990009E432E630B790A88DB1F92B203EB83031D
:1009A0009A4003681D6B2A431A6311E0EE6A0D3A00
:1009B00002EB820293409E43EE620B790A880D3B64
:1009C00092B203EB83039A400368DD6A2A43DA623A
:1009D0001B4B0568194A9D420AD10D68122D07D19B
:1009E000556825F400055560556845F48005556047
:1009F00005689D421DD1134D0B68AB4201D0112BF0
:100A000017D1536823F480035360536843F4000301
:100A100053600968A9420CD10B490C4A0968B1FB23
:100A2000F2F101EB8101490000E0491E009100292B
:100A3000FBD180F83C40002078BD0000002301403D
:100A400000200140120000102400002040420F004E
:100A50000068C06C704770B504004FF0000503D00B
:100A6000206C002610B107E0012070BD204600F088
:100A70001DF8666484F83C60206CC00610D4206CBD
:100A800020F4885040F0020020642046FFF76AFE00
:100A90006664206C20F0020040F00100206400E059
:100AA000012584F83C60284670BD000010B586B072
:100AB000044614216846FFF7CFFB1149206888429D
:100AC0001CD110480021026842F480720260006864
:100AD00000F4807005900B481438026842F001025F
:100AE0000260006800F001000590082000900320DB
:100AF000CDE901016946044800F0F0F806B010BDE8
:100B00000020014044380240000002402DE9F0413D
:100B1000044600680D4681684FF0000749050BD573
:100B20008068C00508D5206C40F02000206484F85F
:100B30003C700120BDE8F08100F0C4F906460FE0EA
:100B4000681C0DD025B100F0BDF9801BA84207D963
:100B5000206C40F00400206484F83C700320E9E736
:100B6000206800688007EBD521686FF012000860EC
:100B7000206C40F4007020642068816811F0405FB0
:100B800013D1217E89B9C16A11F4700F02D0806837
:100B900040050AD4206C20F480702064206CC004CE
:100BA00003D4206C40F0010020640020C2E7000064
:100BB00018B50021009190F83C20012A07D00122AD
:100BC00080F83C2002689368DB0702D011E0022025
:100BD00018BD936843F0010393602A4A2A4B1268B8
:100BE000B2FBF3F202EB420200E0521E0092002A36
:100BF000FBD102689368DB0741D0036C40F20164CB
:100C0000A34343F48073036453685B0505D5036C09
:100C100023F4005343F480530364036CDB0404D5D2
:100C2000436C23F00603436400E0416480F83C1009
:100C300016496FF02203136049680068CA06144918
:100C400006D088421BD1816811F0405F13D016E0B6
:100C50008842F8D00F4A904203D1D1F80423D2063B
:100C6000F1D00D4A90420AD1D1F8041301F01F01CE
:100C70001029E8D303E0816841F0804181600020C1
:100C800018BD00002400002040420F000023014056
:100C900000200140002101400022014070B50446BF
:100CA00000F010F90546601C02D0044800780444A6
:100CB00000F008F9401BA042FAD370BD18000020D4
:100CC00070470000044910B50A68024202D008606B
:100CD000FFF7F6FF10BD0000143C01402DE9F84F6E
:100CE00000224FF0010803254FF00F0E0B6808FAA1
:100CF00002F42340A3426ED14E68012E05D0022E8D
:100D000003D0112E01D0122E12D186684FEA420C68
:100D100005FA0CF7BE43CF6807FA0CF73743876034
:100D20004668A6430C79C4F30014944034434460ED
:100D3000C668570005FA07FC8C6826EA0C06BC401A
:100D40003443C4604C68022C01D0122C13D1D40857
:100D500000EB8404A346D4F8209054074FEAD46AE9
:100D60000EFA0AF629EA06090E6906FA0AF646EAB2
:100D70000906CBF8206004680E7924EA0C0406F01A
:100D80000306BE40264306604C68E4006FD53B4C2A
:100D9000266846F480462660246822F0030604F4A0
:100DA00080440094364C3444A446D4F8084896074E
:100DB000360F0EFA06F7BC43324FB84201D1002776
:100DC0002EE0314FB84201D1012729E02F4FB84220
:100DD00002D1022724E04AE02D4FB84201D1032777
:100DE0001EE02C4FB84201D1042719E02A4FB84227
:100DF00001D1052714E0294FB84201D106270FE0A1
:100E0000274FB84201D107270AE0264FB84201D147
:100E1000082705E0244FB84201D1092700E00A273E
:100E2000B7402743CCF80878204E34684F689C437D
:100E3000FF0300D51C4334601C4E361D34684F68D8
:100E40009C43BF0300D51C433460184E08363468F9
:100E50004F689C43FF0200D51C433460134E0C3690
:100E600034684F689C43BF0200D51C433460521C59
:100E7000102AFFF43BAFBDE8F88F00004438024071
:100E8000003001400000024000040240000802401F
:100E9000000C024000100240001402400018024002
:100EA000001C02400020024000240240003C01409F
:100EB0000069084000D0012070470AB18161704785
:100EC0000904FBE701488068704700001800002013
:100ED0000248816802781144816070471800002040
:100EE0000B4810B5016841F400710160016841F4DC
:100EF00080610160016841F480710160032000F0AD
:100F00006FF8002000F006F800F024F8002010BD73
:100F1000003C024070B50D4D04464FF47A712878BC
:100F2000B1FBF0F00A490968B1FBF0F000F0E4FA17
:100F300048B9102C07D200222146501E00F030F88C
:100F400000206C6070BD012070BD00001800002002
:100F5000240000200A4808B5016841F4804101607E
:100F6000006800F4804000900548001F016841F0CF
:100F700080510160006800F08050009008BD0000C2
:100F800044380240002809DB00F01F020121914093
:100F90004009800000F1E020C0F800117047000017
:100FA000F0B40E4B1B680C46C3F30223C3F10705D4
:100FB000042D00D90425191D072901D2002300E0C2
:100FC000DB1E012606FA05F1491E214099409E408C
:100FD000761E16403143F0BC01F0F8B80CED00E08D
:100FE000064900F0070208684FF6FF03184040EA80
:100FF0000220034A10430860704700000CED00E037
:101000000000FA052DE9F0470E46050065D0DFF82F
:101010001481D8F80000F7B200F00F00B04207D2F8
:1010200088F80070D8F8000000F00F00B04254D1EA
:1010300028683D4C810712D5400703D5206840F44D
:10104000E05020602878000703D5206840F4604015
:1010500020602068A96820F0F0000843206028780C
:10106000C0072DD0304968680839012812D00228FD
:1010700013D0032811D00968890700292DDA2168C7
:1010800021F0030101432160FFF71CFF814641F27B
:10109000883A0EE009688903EFE709688901ECE7FF
:1010A000FFF710FFA0EB0901514502D90320BDE86D
:1010B000F0872068696800F00C00B0EB810FEFD179
:1010C000D8F80010404601F00F01B14207D907706F
:1010D000006800F00F00B04201D00120E7E7287857
:1010E000400705D52068E96820F4E05008432060F7
:1010F0002878000706D52068296920F4604040EA76
:10110000C100206000F018F82168084AC1F30311FB
:10111000515CC8400649086006480068FFF7FAFEBF
:101120000020C4E7003C024008380240902C000830
:10113000240000201C000020154810B5006810F0A5
:101140000C02144813D01449042A0FD0082A0ED1D7
:101150000F4C241F2268236802F03F025B0207D570
:101160002068C0F38810A0FB010106E0084610BD0E
:101170002168C1F38811A1FB00010023FFF734F8B7
:101180002168C1F30141491C4900B0FBF1F010BDD9
:10119000083802400024F40040787D012DE9F84F22
:1011A00004006ED02078DFF83C93C007A9F1040555
:1011B0004AD009F104000168C1F38101012908D076
:1011C0000068C0F3810002280AD1D9F8000040026B
:1011D00006D52868800337D560680028E1D033E061
:1011E0006068B0F5803F10D0B0F5A02F286810D00F
:1011F00020F480302860286820F48020286060680F
:10120000A8B1FFF75FFE06460DE0286840F4803085
:10121000F4E740F480202860F7E700BFFFF752FEB4
:10122000801B642873D828688003F7D50CE0FFF78B
:1012300049FE064605E000BFFFF744FE801B642818
:10124000F0D828688003F7D42078DFF89C828007E4
:101250004FF0000A3ED5A348001D016811F00C0FA5
:1012600008D00068C0F3810002280BD1D9F8000033
:10127000400207D42868800716D5E068012800D10D
:1012800012E02BE1E068B8B10120C8F80000FFF7D8
:1012900019FE064605E000BFFFF714FE801B02287A
:1012A000C0D828688007F7D52868216920F0F800A1
:1012B00040EAC10028600DE0C8F800A0FFF702FE78
:1012C000064604E0FFF7FEFD801B02281FD82868B1
:1012D0008007F7D42078000722D5824E83486169C1
:1012E000703671B101210160FFF7ECFD074604E0A3
:1012F000FFF7E8FDC01B022809D830688007F7D542
:101300000EE0C0F800A0FFF7DDFD074605E082E033
:10131000FFF7D8FDC01B02287DD830688007F7D4BE
:101320002078400768D5DFF8BCB100270BF13C0BF3
:10133000DBF80000C0000BD4DBF8001041F0805156
:10134000CBF80010DBF80000012700F0805000907F
:10135000674E3068C00510D4306840F4807030604B
:10136000FFF7B0FD009005E0FFF7ACFD0099401AD3
:10137000022850D83068C005F6D55A4EA0686C36A1
:1013800001280FD00528306810D020F0010030600F
:10139000306820F004003060A068B8B1FFF792FD1B
:1013A00000900FE0306840F00100F4E740F00400E6
:1013B0003060F7E7FFF786FD0099411A41F2883067
:1013C000814266D830688007F4D50EE0FFF77AFDD9
:1013D000009007E0FFF776FD0099411A41F288304E
:1013E000814256D830688007F4D42FB1DBF8001062
:1013F00021F08051CBF80010A069C8B33949091D0C
:101400000968C1F3810102294AD00228504607D059
:10141000C8F8600000E03CE0FFF754FD04463BE004
:101420004746C8F86000FFF74DFD064605E000BFDF
:10143000FFF748FD801B02282BD828688001F7D4CD
:10144000D4E907010843A16A2A4A490802EB01418D
:10145000626A41EA8211084394F82C1040EA016163
:10146000C9F8001001203866FFF72CFD044606E09D
:1014700036E000BFFFF726FD001B022809D82868C8
:101480008001F7D52CE000BFFFF71CFD001B0228F0
:1014900002D90320BDE8F88F28688001F4D41FE04A
:1014A0000128F7D0D9F80000E26900F480019142E8
:1014B00014D1226A00F03F0191420FD147F6C0716A
:1014C000626A0140914209D1A26A00F4403191421E
:1014D00004D1E16A00F07060884201D00120D9E7B0
:1014E0000020D7E70438024000004742800E474200
:1014F000007000400000FFFF10B5401EB0F1807F7B
:1015000001D3012010BD4FF0E02460610F2160176E
:1015100000F05CFE0020A06107202061002010BDCB
:101520007047704770B590F83C20012A32D00124F2
:1015300080F83C40022280F83D2003685A689D688C
:1015400022F070060A6832435A60134B02689A42CE
:1015500014D0B2F1804F11D0104B9A420ED0104BE4
:101560009A420BD00F4B9A4208D00F4B9A4205D0AB
:101570000E4B9A4202D00E4B9A4204D1496825F094
:1015800080031943916080F83D40002180F83C10B1
:10159000084670BD022070BD0000014000040040FC
:1015A00000080040000C00400004014000400140E1
:1015B0000018004010B5040003D094F83D0010B1AD
:1015C00007E0012010BD002084F83C00204600F018
:1015D0000DF8022084F83D00211D206800F042FD36
:1015E000012084F83D00002010BD000008B500680F
:1015F000B0F1804F12D10A48016841F00101016049
:101600000068002200F00100009011461C20FFF746
:10161000C7FCBDE808401C20FFF7B4BC08BD0000B3
:101620004038024070B5044690F83C00012817D0BD
:10163000012584F83C50022084F83D00206882682F
:1016400022F0770222F47F4282600868502830D06E
:101650000DDC20284DD005DC98B310283BD148E0A4
:10166000022070BD302844D0402834D139E06028B1
:1016700028D0702806D0B0F5805F2CD0B0F5005F80
:1016800029D10AE0CB68D1E90121206800F04EFDA4
:101690002068816841F0770109E0CB68D1E9012138
:1016A000206800F043FD2068816841F4804181603A
:1016B00011E0CA684968206800F04AFD502120689E
:1016C00007E016E0CA684968206800F052FD602112
:1016D000206800F035FD84F83D50002084F83C007F
:1016E00070BDCA684968206800F032FD402120685A
:1016F000EFE7226801461046EBE7704770B50446F5
:10170000006801694FF00005C943890715D4C16815
:10171000C943890711D4E91E01610120207720689F
:1017200080698007204602D0FFF7E7FF04E000F061
:1017300098F8204600F096F8257720680169C9439B
:10174000490717D4C168C943490713D46FF004018E
:101750000161022020772068806910F4407F2046D4
:1017600002D0FFF7CAFF04E000F07BF8204600F04B
:1017700079F8257720680169C943090716D4C1683B
:10178000C943090712D46FF00801016104202077D2
:101790002068C0698007204602D0FFF7AEFF04E052
:1017A00000F05FF8204600F05DF8257720680169B9
:1017B000C943C90617D4C168C943C90613D46FF019
:1017C00010010161082020772068C06910F4407F73
:1017D000204602D0FFF791FF04E000F042F82046D7
:1017E00000F040F8257720680169C943C90708D18E
:1017F000C168C943C90704D1891E0161204600F0B0
:1018000032F820680169C943090609D4C168C9438F
:10181000090605D46FF0800101612046FFF780FEC4
:1018200020680169C943490609D4C168C94349060A
:1018300005D46FF040010161204600F015F82068E2
:101840000169C94389060BD4C168C943890607D415
:101850006FF0200101612046BDE87040FFF761BED6
:1018600070BD7047704770477047FEE710B5274C52
:10187000002202212046FFF720FB01228021204682
:10188000FFF71BFB002208212046FFF716FB002272
:1018900010212046FFF711FB002220212046FFF7F0
:1018A0000CFB002240212046FFF707FB002280218D
:1018B0002046FFF702FB1420FFF7F0F901228021F8
:1018C0002046FFF7FAFA002208212046FFF7F5FA32
:1018D000002210212046FFF7F0FA002220212046A6
:1018E000FFF7EBFA012240212046FFF7E6FA00223B
:1018F00080212046FFF7E1FA1420FFF7CFF92046B8
:101900000122BDE810400221FFF7D7BA000C0240C7
:1019100010B56420FFF7C2F9ED4C002202212046E9
:10192000FFF7CBFA012280212046FFF7C6FA0022FA
:1019300008212046FFF7C1FA002210212046FFF7B8
:10194000BCFA012220212046FFF7B7FA01224021EC
:101950002046FFF7B2FA002280212046FFF7ADFAB9
:101960001420FFF79BF9012280212046FFF7A5FAFA
:10197000002208212046FFF7A0FA0022102120466D
:10198000FFF79BFA012220212046FFF796FA012259
:1019900040212046FFF791FA002280212046FFF7E0
:1019A0008CFA1420FFF77AF9012280212046FFF7F4
:1019B00084FA002208212046FFF77FFA0022102136
:1019C0002046FFF77AFA012220212046FFF775FA18
:1019D000012240212046FFF770FA00228021204694
:1019E000FFF76BFA1420FFF759F9012280212046F6
:1019F000FFF763FA002208212046FFF75EFA002273
:101A000010212046FFF759FA012220212046FFF736
:101A100054FA002240212046FFF74FFA002280218D
:101A20002046FFF74AFA1420FFF738F901228021F7
:101A30002046FFF742FA002208212046FFF73DFA30
:101A4000002210212046FFF738FA012220212046EB
:101A5000FFF733FA002240212046FFF72EFA00223A
:101A600080212046FFF729FA1420FFF717F90122F9
:101A700080212046FFF721FA012208212046FFF7A6
:101A80001CFA002210212046FFF717FA002220211D
:101A90002046FFF712FA002240212046FFF70DFAF8
:101AA000002280212046FFF708FA1420FFF7F6F8FD
:101AB000012280212046FFF700FA0022082120465B
:101AC000FFF7FBF9002210212046FFF7F6F900226C
:101AD00020212046FFF7F1F9002240212046FFF7A0
:101AE000ECF9002280212046FFF7E7F91420FFF7E8
:101AF000D5F8012280212046FFF7DFF901220821D5
:101B00002046FFF7DAF9002210212046FFF7D5F929
:101B1000002220212046FFF7D0F900224021204654
:101B2000FFF7CBF9002280212046FFF7C6F91420E9
:101B3000FFF7B4F8012280212046FFF7BEF900220A
:101B400008212046FFF7B9F9002210212046FFF7AF
:101B5000B4F9002220212046FFF7AFF900224021EE
:101B60002046FFF7AAF9002280212046FFF7A5F9B9
:101B70001420FFF793F8012280212046FFF79DF9FA
:101B8000002208212046FFF798F900221021204664
:101B9000FFF793F9002220212046FFF78EF901225A
:101BA00040212046FFF789F9002280212046FFF7D7
:101BB00084F91420FFF772F8012280212046FFF7F4
:101BC0007CF9002208212046FFF777F90022102136
:101BD0002046FFF772F9002220212046FFF76DF919
:101BE000002240212046FFF768F90022802120468C
:101BF000FFF763F91420FFF751F8012280212046F6
:101C0000FFF75BF9002208212046FFF756F9012271
:101C100010212046FFF751F9012220212046FFF72D
:101C20004CF9002240212046FFF747F9002280218D
:101C30002046FFF742F91420FFF730F801228021F7
:101C40002046FFF73AF9002208212046FFF735F930
:101C5000002210212046FFF730F9002220212046E3
:101C6000FFF72BF9002240212046FFF726F900223A
:101C700080212046FFF721F91420FFF70FF80122F9
:101C800080212046FFF719F9012208212046FFF79D
:101C900014F9012210212046FFF70FF9012220211B
:101CA0002046FFF70AF9012240212046FFF705F9F7
:101CB000002280212046FFF700F91420FEF7EEFFF6
:101CC00020460122BDE810400221FFF7F6B80000CF
:101CD000000C024070B5384D04460122022128460E
:101CE000FFF7EBF8012280212846FFF7E6F82006EF
:101CF00001D5012200E0002208212846FFF7DDF887
:101D0000600601D5012200E0002210212846FFF7DD
:101D1000D4F8A00601D5012200E0002220212846A7
:101D2000FFF7CBF8E00601D5012200E000224021B8
:101D30002846FFF7C2F8002280212846FFF7BDF8A9
:101D40000120FEF7ABFF012280212846FFF7B5F8FE
:101D5000200701D5012200E0002208212846FFF7D4
:101D6000ACF8600701D5012200E0002210212846CE
:101D7000FFF7A3F8A00701D5012200E000222021EF
:101D80002846FFF79AF8E00701D0012200E0002280
:101D900040212846FFF791F8002280212846FFF7CE
:101DA0008CF80120FEF77AFF2846BDE8704000223B
:101DB0000221FFF782B80000000C024010B588B085
:101DC0000446411C8DED000B04A202A800F0E4F9CA
:101DD000214602A800F004F808B010BD25660000F6
:101DE00070B50D460646002403E0305DFFF772FF34
:101DF000641CAC4201DA082CF7DB082D02DD02205E
:101E000000F0E6FE082403E0305DFFF763FF641C8A
:101E1000AC42F9DB70BD00007FB50024154800948A
:101E20000194029412490394C0E900144FF08071A8
:101E300004618160047680F820400F49C0E90A14EB
:101E40000125C561C46080F830404561FEF703FE9E
:101E500008B172B6FEE70320CDE900056946029499
:101E60000448FEF743FD002801D072B6FEE77FBDAF
:101E700000200140280000200100000FF0B587B0CD
:101E800014216846FEF7E8F92A480024016841F069
:101E900001010160016801F001010591016841F053
:101EA00002010160016801F002010591016841F041
:101EB00004010160016801F004010591016841F02D
:101EC0000801016000681C4E00F0080044F2810522
:101ED0000590002229463046FEF7EFFF174F0022FB
:101EE000FA213846FEF7E9FF00950125CDE90154B6
:101EF000694630460394FEF7F1FE28020090104830
:101F0000CDE9010469460F48FEF7E8FEFA2000908B
:101F1000CDE90154694638460394FEF7DFFE0022FE
:101F200011461720FFF73CF81720FFF72BF807B0F2
:101F3000F0BD00003038024000040240000C0240B6
:101F4000000011100008024010B586B000241748A8
:101F5000009401940294039404944FF080410594FA
:101F6000016040F2E731C0E9011445F20821C0E9FF
:101F700003148461FFF71EFB08B172B6FEE74FF44D
:101F80008050009069460948FFF74CFB08B172B6D3
:101F9000FEE7049404A905480594FFF7C3FA002856
:101FA00001D072B6FEE706B010BD00007000002040
:101FB000FEE7FEE770477047FEF78ABF10B592B0A4
:101FC00030216846FEF748F914210CA8FEF744F9C1
:101FD00018480024016841F080510160006800F059
:101FE000805011901448016821F4404141F480412F
:101FF00001600068069400F44040119002200090B7
:1020000001200390102004906846FFF7C7F808B13C
:1020100072B6FEE70F20CDE90C040E940F94002158
:102020000CA81094FEF7EEFF002801D072B6FEE770
:1020300012B010BD403802400070004005480168F1
:1020400041F47001016003494FF00060803908607D
:102050007047000088ED00E00148FFF74FBB00002B
:1020600070000020F0B50268254C264D264E274F03
:10207000274B4FF0804CA04209D0604507D0A842C2
:1020800005D0B04203D0B84201D0984204D122F02A
:10209000700E4A6842EA0E02A0421BD0604519D079
:1020A000A84217D0B04215D0B84213D0984211D0F0
:1020B000184DA8420ED0184DA8420BD0174DA8427B
:1020C00008D0174DA84205D0164DA84202D0164D93
:1020D000A84203D122F44075CA682A434D6922F010
:1020E00080022A4302608A68C2620A688262A04251
:1020F00001D0984201D10969016301214161F0BD1C
:10210000000001400004004000080040000C0040B6
:1021100000040140004001400044014000480140EB
:1021200000180040001C00400020004010B58468EA
:1021300042EA032224F47F440A432243826010BD12
:10214000826822F070020A4342F007018160704702
:1021500010B5036A046A24F001040462846924F05F
:10216000F00444EA021423F00A020A438461026282
:1021700010BD10B5036A23F0100303628369046A7B
:1021800023F4704343EA023224F0A00343EA01112E
:102190008261016210BDFEE70FB47CB50C0009AD91
:1021A00001D0611E00E00021CDE90001064B6A4626
:1021B0002946089800F0ECF8002C02D0009A002183
:1021C00011707CBC5DF814FB972A00080907090E02
:1021D000002804DB00F1E02080F80014704700F0D4
:1021E0000F0000F1E02080F8141D704702E008C8DD
:1021F000121F08C1002AFAD170477047002001E081
:1022000001C1121F002AFBD1704700002DE9FF5FBA
:1022100082B00021DDE90430020DDDF840B0034357
:1022200018D044F61050A2F2FF3242431514119810
:1022300001281FD0A5EB0B00401C5FEA000A4FF0FD
:1022400000064E4FDFF83891B046504615D5CAF11A
:10225000000413E0119801244AA3012801D16FEA78
:102260000B010298119AC0E90031C0E9024206B0A0
:10227000BDE8F09FCBF10000DFE704460021404AB3
:10228000491842EB0450CDE9001012E0E00707D0F6
:1022900032463B4640464946FEF790F8804689461E
:1022A00032463B4610461946FEF788F806460F466A
:1022B0006410002CEAD1DDE90401DDE90023BAF164
:1022C000000F06DAFEF77AF842464B46FEF776F83C
:1022D00005E0FEF7E5F842464B46FEF7E1F8044616
:1022E0000E460022284BFEF713FA03D84FF0FF30BA
:1022F000014607E00022254B20463146FDF7B7FF97
:10230000FEF7EEF9102409E0002C0ADB0A22002374
:10231000FDF76AFF039B30321A55641E50EA010232
:10232000F2D1641C039AC4F111031444119A012AD6
:1023300003D0012208430DD10AE0084304D0002055
:102340004FF0110B119072E7A3EB0B056D1E0DE022
:102350005B4504DD4FF0000205F1010504E003DAFE
:102360004FF00002A5F10105002AECD00298119966
:10237000C0E90231C0E9004579E7000000001440DF
:102380000000F03F300000000000F0430000E03F9C
:102390002DE9FF4F95B09A46884606460025EEE1A6
:1023A000252877D100242746F94A0121039400E02B
:1023B000044316F8013F203B01FA03F01042F7D125
:1023C00030782A2811D06FF02F033078A0F1300236
:1023D000092A16D8039A44F0020402EB820203EBA6
:1023E00042021044761C0390EFE758F8042B039246
:1023F000002A03DA504244F40054039044F00204EB
:10240000761C30782E2816D116F8010F44F00404FB
:102410002A280DD06FF02F023078A0F13003092B5D
:1024200009D807EB870302EB4303C718761CF3E7D1
:1024300058F8047B761C30786C280FD006DC4C28CA
:1024400017D068280DD06A2814D104E0742810D061
:102450007A280FD10DE044F400140AE044F480140B
:1024600001E044F440147278824202D104F58014F1
:10247000761C761C307866280BD013DC582877D071
:1024800009DC002875D04528F6D04628F4D0472826
:102490001AD193E118E0632835D0642879D06528F3
:1024A00012D18BE1702873D008DC6728F1D069283D
:1024B0006FD06E280DD06F2806D1ACE073282CD0D9
:1024C000752874D0782853D05246179990476D1CC0
:1024D00054E1C4F30250022809D003280DD0D8F8E3
:1024E000001004280DD00D6008F1040846E1D8F86A
:1024F0000010EA17C1E90052F6E7D8F800100D8085
:10250000F2E70D70F0E718F8041B8DF800100020BA
:102510008DF80100EB46012003E058F804BB4FF0B2
:10252000FF3061074FF0000102D40DE009F1010115
:102530008946B9420FDA8145F8DB1BF809100029FA
:10254000F4D108E009F1010189468142FADB1BF868
:1025500009100029F6D103985346A0EB090721463C
:102560003846179A00F080FA284400EB090507E086
:1025700044E008E10DE01BF8010B52461799904723
:10258000B9F10109F7D2534621463846179AF2E0CD
:1025900039E00A21C4F302524FF0000B0091022AE5
:1025A00006D058F8040BC117032A09D00AE023E02B
:1025B00008F1070020F00702F2E80201904605E06A
:1025C00000B2C117042A01D140B2C117002906DAAE
:1025D0000A460021404261EB02012D2202E0220561
:1025E00004D52B228DF80420012203E0E20701D05C
:1025F0002022F7E7914657E00A2100E010214FF032
:10260000000B00910BE010214FF0000B44F004048C
:102610000827009103E008204FF0000B0090C4F35E
:102620000252022A05D058F8040B0021032A08D0D0
:1026300008E008F1070020F00702F2E802019046E6
:1026400003E080B2042A00D1C0B24FF00009220793
:102650002AD53278702A07D0DDF800C08CF0100C33
:102660005CEA0B0C05D00EE040228DF8042001221C
:1026700008E050EA010306D030238DF804308DF8CD
:10268000052002229146009B83F0080353EA0B03C6
:102690000AD150EA010201D1620705D530228DF836
:1026A00004204FF001097F1E3278582A04D039A245
:1026B0000C920CAA02920BE03BA2F9E75B46009A4F
:1026C000FDF792FD0C9B9B5C029A521E02921370C6
:1026D00050EA0102F2D1029804A9081A00F1200B75
:1026E000600702D524F4803400E001275F4502DD55
:1026F000A7EB0B0000E0002000EB0B01009003981B
:102700004944401A0390E00306D453462146179AE1
:10271000039800F0A9F90544002706E001A85246F5
:10272000C05D179990476D1C7F1C4F45F6DBE00399
:102730000CD553462146179A039800F095F90544A5
:1027400004E030205246179990476D1C0099481EAE
:1027500000900029F5DC08E00298029952460078C2
:10276000491C0291179990476D1CBBF10001ABF118
:10277000010BF1DC5BE100F065F90544761C307873
:1027800000287FF40DAE19B02846BDE8F08F000098
:102790000928010030313233343536373839616237
:1027A00063646566000000003031323334353637FB
:1027B000383941424344454600000000600700D4D8
:1027C000062708F1070020F00700F0E80223804602
:1027D00003F0004C5FEA0C0001D097A009E020054F
:1027E00001D596A005E0E00701D095A001E0AFF289
:1027F0004C001390307823F0004365280CD006DCA1
:10280000452809D046281DD047287FD13BE06628BF
:1028100018D067287AD136E00021112F01DB112072
:1028200000E0781CCDE9000104A90CA8FFF7EEFC3C
:10283000DDE90D010C9A4FF0000B07F10109109230
:1028400000914EE04FF000400097CDE9011004A93F
:102850000CA8FFF7DBFCDDE90D020C9B0F994FF094
:10286000000B91461093009211B9791C00EB0109FD
:10287000B7EB090003D4C0F1FF3B07F10109A9EB55
:102880000700019042E0012F00DA01270021112FFB
:1028900001DD112000E03846CDE9000104A90CA8B3
:1028A000FFF7B4FCDDE90D010C9A00914FF0000B2D
:1028B000B946109221070FD4009A4A4503DA91468F
:1028C00001E0A9F10109B9F1010F05DD109AA9F1A3
:1028D0000101515C3029F4D0B84202DA10F1040F42
:1028E00003DA0121CDE9011010E0002803DC834464
:1028F000A9EB000102E0411C494500DD8946A0EB3F
:102900000B00401C01904FF000400290200705D4BE
:102910000198484502DB4FF0FF30019000208DF810
:102920004B0002980DF14B07B0F1004F25D002206B
:102930000C902B200D90029800280CDA4042029057
:102940002D200D9007E00A210298FDF725FE303179
:10295000029007F8011D0C99481E0C900029F2DC2A
:1029600002980028EFD1791E0D980870307800F099
:10297000200040F0450007F8020D11A8C01BC01D43
:1029800002901398007800B1012000EB0901019832
:1029900001EBE071029801440398401A401E039035
:1029A000E00306D453462146179A039800F05CF8DA
:1029B00005441398007818B15246179990476D1C3A
:1029C000E00323D553462146179A039800F04CF8AC
:1029D00005441BE0BBF1000F07DB0098584504DD00
:1029E0001098179910F80B0001E017993020524603
:1029F000904701980BF1010B401E05F10105019074
:102A000004D12E205246179990476D1CB9F1000150
:102A1000A9F10109DEDC05E017F8010B5246179910
:102A200090476D1C0299481E02900029F4DC534621
:102A30002146179A03989EE62D0000002B00000007
:102A4000200000002DE9F041044600251E461746EF
:102A5000880404D405E039462020B0476D1C641E6C
:102A6000F9D52846BDE8F0812DE9F041044600255E
:102A70001E469046C80301D5302700E02027880471
:102A800004D505E041463846B0476D1C641EF9D5B3
:102A90002846BDE8F0814A68002A06D00A68531C1F
:102AA0000B6010704868401E486070472DED088B21
:102AB000FEF716FAFFF782FAFFF7E0F9FFF7ACF935
:102AC000FFF742FAFEF724FF012000F081F8082109
:102AD0002EA0FFF785F9304C9FED308B9FED319B99
:102AE0009FED32AB9FED33BB344E4FF0FF384FF4C8
:102AF00080753348FEF75CF841463148FEF706F82A
:102B00002F48FDF7A5FF2060FDF739FD53EC182B8A
:102B1000FDF754FC53EC192BFDF750FC53EC1A2B2A
:102B2000FDF746FC53EC1B2BFDF7BAFCC4E9020190
:102B3000FEF79CFE022123A0FFF752F9042094ED3A
:102B4000020BFFF73BF902211FA0FFF749F92946C5
:102B50003046FEF7ADF9606029463046FEF7A8F929
:102B600080B91A4F002201213846FEF7A6F900224B
:102B700080213846FEF7A1F900224FF48041384603
:102B8000FEF79BF96420FEF789F8B2E7537461728F
:102B900074696E67000000000800002066666666C3
:102BA00066660A40000000000000503F0000000080
:102BB0000000E03F7B14AE47E17A843F000802400A
:102BC00028000020543A0000204300000004024086
:102BD00070B52E4C0546002202212046FEF76DF905
:102BE000012D4FF001024FF08001204645D0FEF745
:102BF00064F9012208212046FEF75FF90122102125
:102C00002046FEF75AF9002220212046FEF755F90A
:102C1000002240212046FEF750F900228021204664
:102C2000FEF74BF91420FEF739F8012280212046E7
:102C3000FEF743F9002208212046FEF73EF9002264
:102C400010212046FEF739F9002220212046FEF708
:102C500034F9002240212046FEF72FF9002280217E
:102C60002046FEF72AF90120FEF718F82046BDE8B5
:102C7000704001220221FEF720B9FEF71EF9012261
:102C800008212046FEF719F90022B8E7000C02409F
:102C9000000000000000000001020304060708090C
:102CA000C02C00080000002028000000EC210008D3
:102CB000E82C00082800002088040000FC210008FF
:102CC0000000000000000000000000000000000004
:102CD00000000000000000000100000010000000E3
:082CE000000000000024F400D4
:04000005080001AD41
:00000001FF
